:020000040800F2
:1000000000500020DD6E0008DD510008E9510008B5
:10001000F1510008F95100080152000800000000E9
:10002000000000000000000000000000095200086D
:100030001552000800000000215200082D5200084F
:10004000256F0008256F0008256F0008256F000840
:10005000256F0008256F0008256F0008256F000830
:10006000256F0008256F0008256F0008256F000820
:10007000256F0008256F0008256F0008256F000810
:10008000256F0008256F0008256F0008256F000800
:10009000256F0008256F0008256F0008256F0008F0
:1000A000256F0008256F0008256F0008256F0008E0
:1000B000256F0008256F0008256F0008256F0008D0
:1000C000256F0008256F0008256F0008256F0008C0
:1000D000256F0008256F0008256F0008256F0008B0
:1000E000256F0008256F0008256F0008000000003C
:1000F0000000000000000000000000000000000000
:0C01000000000000000000005FF808F1A3
:10010C0010B5054C237833B9044B13B10448AFF345
:10011C0000800123237010BD30040020000000007B
:10012C00846F0008084B10B51BB108490848AFF3A1
:10013C0000800848036803B910BD074B002BFBD0A7
:10014C00BDE81040184700BF000000003404002038
:10015C00846F0008300400200000000080B485B0DB
:10016C0000AF78600023FB607B68002B01D101237A
:10017C0039E07B6893F82130002B03D17B68002297
:10018C0083F820207B68022283F821207B681B687F
:10019C001B68FB60FB6823F47F5323F03003FB6088
:1001AC007B685A687B689B681A437B68DB681A43D8
:1001BC007B681B691A437B685B691A437B689B6984
:1001CC001A437B68DB691343FA681343FB607B6853
:1001DC001B68FA681A607B6800225A637B680122EC
:1001EC0083F82120002318461437BD4680BC704785
:1001FC0080B483B000AF78607B68002B01D1012301
:10020C00D2E07B6893F82130022B01D10123CBE0A3
:10021C007B681B687A681268126822F001021A6007
:10022C007B681B6800221A607B681B6800225A607E
:10023C007B681B6800229A607B681B680022DA606E
:10024C005C4A7B681B6819465B4B99422ED07B68D5
:10025C001B681946594B994226D07B681B68194676
:10026C00574B99421DD07B681B681946554B9942D8
:10027C0014D07B681B681946534B99420BD07B6892
:10028C001B681946514B994202D14FF400130EE0F2
:10029C004FF000730BE04FF4003308E04FF40053C1
:1002AC0005E04FF4007302E0202300E002235360CA
:1002BC00404A7B681B6819463F4B99422ED07B689D
:1002CC001B6819463D4B994226D07B681B68194622
:1002DC003B4B99421DD07B681B681946394B9942A0
:1002EC0014D07B681B681946374B99420BD07B683E
:1002FC001B681946354B994202D14FF400030EE0AE
:10030C004FF000630BE04FF4002308E04FF4004380
:10031C0005E04FF4006302E0802300E00823536003
:10032C00244A7B681B681946234B99422ED07B6864
:10033C001B681946214B994226D07B681B681946CD
:10034C001F4B99421DD07B681B6819461D4B994267
:10035C0014D07B681B6819461B4B99420BD07B68E9
:10036C001B681946194B994202D14FF480030EE0D9
:10037C004FF080630BE04FF4802308E04FF4804390
:10038C0005E04FF4806302E0402300E00423536057
:10039C007B6800225A637B68002283F821207B68EB
:1003AC00002283F82020002318460C37BD4680BC61
:1003BC00704700BF00000240080002401C000240D1
:1003CC003000024044000240580002406C000240E1
:1003DC0080B584B000AFF860B9607A603B60FB68B0
:1003EC0093F82030012B01D102231EE0FB6801227F
:1003FC0083F82020FB68022283F82120FB681B680D
:10040C00FA681268126822F001021A603B687A6876
:10041C00B968F86800F068FCFB681B68FA68126839
:10042C00126842F001021A60002318461037BD46CC
:10043C0080BD00BF80B584B000AFF860B9607A6051
:10044C003B60FB6893F82030012B01D1022336E08E
:10045C00FB68012283F82020FB68022283F821200C
:10046C00FB681B68FA681268126822F001021A60B5
:10047C003B687A68B968F86800F036FCFB681B6862
:10048C00FA681268126842F002021A60FB681B6874
:10049C00FA681268126842F004021A60FB681B6862
:1004AC00FA681268126842F008021A60FB681B684E
:1004BC00FA681268126842F001021A6000231846AA
:1004CC001037BD4680BD00BF80B584B000AF7860EA
:1004DC000023FB607B681B687A681268126822F044
:1004EC0001021A6004F0B4FDF86017E004F0B0FDEE
:1004FC000246FB68D31AB3F57A7F0FD97B685B6B26
:10050C0043F020027B685A637B68032283F8212026
:10051C007B68002283F8202003230FE07B681B6894
:10052C001B6803F00103002BE0D17B68012283F8E8
:10053C0021207B68002283F82020002318461037E6
:10054C00BD4680BD80B586B000AFF860B9607A60FA
:10055C0000233B61BB68002B37D1FB681B681A4634
:10056C00A34B9A422ED0FB681B681A46A14B9A42A9
:10057C0026D0FB681B681A469F4B9A421DD0FB681D
:10058C001B681A469D4B9A4214D0FB681B681A468E
:10059C009B4B9A420BD0FB681B681A46994B9A42AC
:1005AC0002D14FF400130EE04FF000730BE04FF448
:1005BC00003308E04FF4005305E04FF4007302E001
:1005CC00202300E002237B6136E0FB681B681A469F
:1005DC00874B9A422ED0FB681B681A46854B9A4271
:1005EC0026D0FB681B681A46834B9A421DD0FB68C9
:1005FC001B681A46814B9A4214D0FB681B681A463A
:10060C007F4B9A420BD0FB681B681A467D4B9A4273
:10061C0002D14FF480030EE04FF080630BE04FF4F7
:10062C00802308E04FF4804305E04FF4806302E040
:10063C00402300E004237B6104F00AFD3861A1E053
:10064C00714B1A68FB681B681946694B99422ED08E
:10065C00FB681B681946674B994226D0FB681B68E0
:10066C001946654B99421DD0FB681B681946634BB4
:10067C00994214D0FB681B681946614B99420BD008
:10068C00FB681B6819465F4B994202D14FF400037B
:10069C000EE04FF000630BE04FF4002308E04FF442
:1006AC00004305E04FF4006302E0802300E00823E0
:1006BC001340002B47D0544AFB681B6819464C4B1F
:1006CC0099422ED0FB681B6819464A4B994226D09A
:1006DC00FB681B681946484B99421DD0FB681B6888
:1006EC001946464B994214D0FB681B681946444B7B
:1006FC0099420BD0FB681B681946424B994202D1B8
:10070C004FF400030EE04FF000630BE04FF40023B6
:10071C0008E04FF4004305E04FF4006302E080234F
:10072C0000E008235360FB685B6B43F00102FB683D
:10073C005A63FB68042283F82120FB68002283F8AB
:10074C0020200123B5E07B68B3F1FF3F1AD07B6812
:10075C00002B07D004F07CFC02463B69D21A7B6864
:10076C009A420FD9FB685B6B43F02002FB685A631B
:10077C00FB68032283F82120FB68002283F82020E9
:10078C00032396E0204B1A687B691340002B3FF43F
:10079C0057AFBB68002B4BD11B4AFB681B68194633
:1007AC00134B99423DD0FB681B681946114B99427B
:1007BC0035D0FB681B6819460F4B99422CD0FB684F
:1007CC001B6819460D4B994223D0FB681B681946D0
:1007DC000B4B99421AD0FB681B681946094B99427E
:1007EC0002D14FF400131DE04FF000731AE000BF6C
:1007FC00080002401C00024030000240440002404D
:10080C00580002406C000240000002404FF40033DC
:10081C0008E04FF4005305E04FF4007302E020238E
:10082C0000E002235360FB68012283F821203BE0A7
:10083C00224AFB681B681946214B99422ED0FB6853
:10084C001B6819461F4B994226D0FB681B6819463A
:10085C001D4B99421DD0FB681B6819461B4B9942D6
:10086C0014D0FB681B681946194B99420BD0FB68D6
:10087C001B681946174B994202D14FF480030EE0C6
:10088C004FF080630BE04FF4802308E04FF480437B
:10089C0005E04FF4806302E0402300E00423536042
:1008AC00FB68112283F82120FB68002283F82020AA
:1008BC00002318461837BD4680BD00BF000002401B
:1008CC00080002401C00024030000240440002407C
:1008DC00580002406C00024080B582B000AF7860D6
:1008EC008F4B1A687B681B6819468E4B99422ED029
:1008FC007B681B6819468C4B994226D07B681B6819
:10090C0019468A4B99421DD07B681B681946884B47
:10091C00994214D07B681B681946864B99420BD0C0
:10092C007B681B681946844B994202D14FF4000333
:10093C000EE04FF000630BE04FF4002308E04FF49F
:10094C00004305E04FF4006302E0802300E008233D
:10095C001340002B5CD07B681B681B6803F00803FA
:10096C00002B55D07B681B687A681268126822F0DD
:10097C0008021A606A4A7B681B681946694B9942DF
:10098C002ED07B681B681946674B994226D07B6832
:10099C001B681946654B99421DD07B681B6819462C
:1009AC00634B994214D07B681B681946614B994282
:1009BC000BD07B681B6819465F4B994202D14FF4F0
:1009CC0000030EE04FF000630BE04FF4002308E04F
:1009DC004FF4004305E04FF4006302E0802300E095
:1009EC00082353607B685B6B43F001027B685A639E
:1009FC007B68042283F821207B68002283F8202066
:100A0C007B681B6B002B03D07B681B6B786898474B
:100A1C00434B1A687B681B681946424B99422ED08F
:100A2C007B681B681946404B994226D07B681B6833
:100A3C0019463E4B99421DD07B681B6819463C4BAE
:100A4C00994214D07B681B6819463A4B99420BD0DB
:100A5C007B681B681946384B994202D14FF48003CE
:100A6C000EE04FF080630BE04FF4802308E04FF46E
:100A7C00804305E04FF4806302E0402300E0042350
:100A8C001340002B68D07B681B681B6803F00403C1
:100A9C00002B61D07B681B681B6803F02003002BC4
:100AAC0007D17B681B687A681268126822F004020E
:100ABC001A601B4A7B681B6819461A4B99423DD039
:100ACC007B681B681946184B994226D07B681B68BB
:100ADC001946164B99421DD07B681B681946144B5E
:100AEC00994214D07B681B681946124B99420BD063
:100AFC007B681B681946104B994202D14FF4800356
:100B0C001DE04FF080631AE04FF4802317E04FF4A0
:100B1C00804314E04FF4806311E040230FE000BFEA
:100B2C0000000240080002401C000240300002405D
:100B3C0044000240580002406C0002400423536001
:100B4C007B68112283F821207B68DB6A002B03D0A1
:100B5C007B68DB6A78689847504B1A687B681B681F
:100B6C0019464F4B99422ED07B681B6819464D4B4A
:100B7C00994226D07B681B6819464B4B99421DD075
:100B8C007B681B681946494B994214D07B681B68DB
:100B9C001946474B99420BD07B681B681946454B4D
:100BAC00994202D14FF400130EE04FF000730BE0AA
:100BBC004FF4003308E04FF4005305E04FF400739A
:100BCC0002E0202300E002231340002B61D07B685D
:100BDC001B681B6803F00203002B5AD07B681B6850
:100BEC001B6803F02003002B07D17B681B687A6815
:100BFC001268126822F002021A60284A7B681B688D
:100C0C001946274B99422ED07B681B681946254BF9
:100C1C00994226D07B681B681946234B99421DD0FC
:100C2C007B681B681946214B994214D07B681B6862
:100C3C0019461F4B99420BD07B681B6819461D4BFC
:100C4C00994202D14FF400130EE04FF000730BE009
:100C5C004FF4003308E04FF4005305E04FF40073F9
:100C6C0002E0202300E0022353607B685A6B7B6810
:100C7C005A637B68012283F821207B68002283F869
:100C8C0020207B689B6A002B03D07B689B6A78686A
:100C9C00984700BF0837BD4680BD00BF000002402A
:100CAC00080002401C000240300002404400024098
:100CBC00580002406C00024080B483B000AF7860F2
:100CCC007B6893F8213018460C37BD4680BC7047C2
:100CDC0080B483B000AF78607B685B6B18460C37D0
:100CEC00BD4680BC704700BF80B485B000AFF860D3
:100CFC00B9607A603B60FB681B683A685A60FB68B5
:100D0C005B68102B08D1FB681B687A689A60FB68DB
:100D1C001B68BA68DA6007E0FB681B68BA689A60FF
:100D2C00FB681B687A68DA6000BF1437BD4680BC6C
:100D3C00704700BF90B585B000AF78600023FB60B2
:100D4C000023BB607B68002B01D101236EE07B6824
:100D5C0093F83530DBB2002B06D17B68002283F888
:100D6C003420786804F0ACFC7B68242283F83520AE
:100D7C007B681B687A681268126822F001021A609C
:100D8C0005F0F2FEB860BB682A4AA2FB03239B0C59
:100D9C00FB607B681B68FA685A607B681A687B6822
:100DAC005B6825498B4202D8FB68013309E0FB687C
:100DBC004FF4967101FB03F32049A1FB03139B092C
:100DCC00013313627B681C68B968786803F06EF8AD
:100DDC000346E3617B681B687A68D1697A68126A9A
:100DEC000A431A607B681B687A6811697A68D26852
:100DFC000A439A607B681B687A6851697A689269C1
:100E0C000A43DA607B681B687A681268126842F0E1
:100E1C0001021A607B6800229A637B68202283F8A7
:100E2C0035207B68002283F83620002318461437BF
:100E3C00BD4690BD83DE1B43A0860100D34D6210DE
:100E4C0080B582B000AF78607B68002B01D10123A4
:100E5C001EE07B68242283F835207B681B687A6847
:100E6C001268126822F001021A60786804F054FCCF
:100E7C007B6800229A637B68002283F835207B68AC
:100E8C00002283F836207B68002283F8342000236C
:100E9C0018460837BD4680BD80B483B000AF78607B
:100EAC0000BF0C37BD4680BC704700BF80B483B018
:100EBC0000AF786000BF0C37BD4680BC704700BFE8
:100ECC0080B586B000AFF8607A601A460B467B811D
:100EDC0013463B81FB6893F83530DBB2202B40F096
:100EEC00B6807B68002B02D03B89002B01D10123FB
:100EFC00AEE042F2107301225749F86803F04CF847
:100F0C000346002B01D00223A2E0FB6893F8343097
:100F1C00012B01D102239BE0FB68012283F83420D2
:100F2C00FB681B68FA681268126822F400621A6087
:100F3C00FB68212283F83520FB68102283F83620C9
:100F4C00FB6800229A637B893A6A1946F86802F0BA
:100F5C0097FB0346002B0FD0FB689B6B042B05D132
:100F6C00FB68002283F83420012371E0FB68002227
:100F7C0083F8342003236BE0FB681B685B697B619F
:100F8C00FB681B689B697B617B6934E0396AF86894
:100F9C0003F0FAF80346002B0FD0FB689B6B042B75
:100FAC0009D1FB681B68FA681268126842F4007277
:100FBC001A6001234CE003234AE0FB681A687B6843
:100FCC00591C79601B7813613B89013B3B81FB68A1
:100FDC001B685B6903F00403002B0CD03B89002BCE
:100FEC0009D0FB681A687B68591C79601B781361FF
:100FFC003B89013B3B813B89002BC7D1396AF8689F
:10100C0003F0FEF80346002B0FD0FB689B6B042B00
:10101C0009D1FB681B68FA681268126842F4007206
:10102C001A60012314E0032312E0FB681B68FA68C2
:10103C001268126842F400721A60FB68202283F86E
:10104C003520FB68002283F83420002300E00223C3
:10105C0018461837BD4680BD0200100080B588B018
:10106C0000AFF8607A601A460B467B8113463B81D1
:10107C00FB6893F83530DBB2202B40F079817B682C
:10108C00002B02D03B89002B01D1012371E142F2EC
:10109C00107301229549F86802F07EFF0346002B7D
:1010AC0001D0022365E1FB6893F83430012B01D1A8
:1010BC0002235EE1FB68012283F83420FB681B6885
:1010CC00FA681268126822F400621A60FB68222225
:1010DC0083F83520FB68102283F83620FB68002249
:1010EC009A637B89BA6A1946F86802F02DFB0346AD
:1010FC00002B0FD0FB689B6B042B05D1FB680022E7
:10110C0083F83420012334E1FB68002283F8342077
:10111C0003232EE13B89012B1BD1FB681B68FA686A
:10112C001268126822F480621A6072B6FB681B683F
:10113C005B69FB61FB681B689B69FB61FB69FB6876
:10114C001B68FA681268126842F400721A6062B680
:10115C00FCE03B89022B1BD1FB681B68FA68126808
:10116C00126842F400621A6072B6FB681B685B6915
:10117C00BB61FB681B689B69BB61BB69FB681B6837
:10118C00FA681268126822F480621A6062B6DDE0B6
:10119C00FB681B68FA681268126842F480621A6075
:1011AC00FB681B685B697B61FB681B689B697B61E7
:1011BC007B69CBE03B89032B00F29C803B89012BA4
:1011CC001AD1B96AF86803F091F80346002B07D0DE
:1011DC00FB689B6B202B01D10323CAE00123C8E0E1
:1011EC007B685A1C7A60FA6812681269D2B21A705B
:1011FC003B89013B3B81A9E03B89022B2BD1BB6A8C
:10120C0000223B49F86802F0C7FE0346002B01D0D0
:10121C000323AEE072B6FB681B68FA6812681268AA
:10122C0042F400721A607B685A1C7A60FA68126881
:10123C001269D2B21A703B89013B3B8162B67B6862
:10124C005A1C7A60FA6812681269D2B21A703B8919
:10125C00013B3B817AE0BB6A00222549F86802F029
:10126C009BFE0346002B01D0032382E0FB681B6826
:10127C00FA681268126822F480621A6072B67B688F
:10128C005A1C7A60FA6812681269D2B21A703B89D9
:10129C00013B3B81BB6A00221549F86802F07CFED9
:1012AC000346002B01D0032363E0FB681B68FA683C
:1012BC001268126842F400721A607B685A1C7A60D9
:1012CC00FA6812681269D2B21A703B89013B3B81F1
:1012DC0062B67B685A1C7A60FA6812681269D2B2DC
:1012EC001A703B89013B3B8130E000BF02001000CB
:1012FC0004000100B96AF86802F0F8FF0346002BFD
:10130C0007D0FB689B6B202B01D1032331E0012319
:10131C002FE07B685A1C7A60FA6812681269D2B2A4
:10132C001A703B89013B3B81FB681B685B6903F0CE
:10133C000403002B0AD07B685A1C7A60FA68126886
:10134C001269D2B21A703B89013B3B813B89002B5D
:10135C007FF430AFFB68202283F83520FB68002235
:10136C0083F83620FB68002283F83420002300E049
:10137C00022318462037BD4680BD00BF80B586B01D
:10138C0000AFF860B9603B601346FB80FB6893F8D4
:10139C003530DBB2202B40F0CA80BB68002B02D06A
:1013AC00FB88002B01D10123C2E042F21073012211
:1013BC006149F86802F0F0FD0346002B01D00223CE
:1013CC00B6E0FB6893F83430012B01D10223AFE077
:1013DC00FB68012283F83420FB681B68FA681268EA
:1013EC00126822F400621A60FB68212283F835200F
:1013FC00FB68202283F83620FB6800229A63FB6886
:10140C001B68FA681268126842F480621A603B68C2
:10141C0000224A49F86802F0BFFD0346002B01D0B8
:10142C00032385E0FB681B685B697B61FB681B68B9
:10143C009B697B617B69FB681B69B3F5404F49D1A4
:10144C003B6800223D49F86802F0A6FD0346002BDC
:10145C0001D003236CE0FB681B685B693B61FB6894
:10146C001B689B693B613B6934E03968F86802F0A2
:10147C008BFE0346002B0FD0FB681B68FA681268C2
:10148C00126822F480621A60FB689B6B042B01D1FA
:10149C0001234DE003234BE0FB681A68BB68591C21
:1014AC00B9601B781361FB88013BFB80FB681B68F0
:1014BC005B6903F00403002B0CD0FB88002B09D0D4
:1014CC00FB681A68BB68591CB9601B781361FB88F0
:1014DC00013BFB80FB88002BC7D13B6800224FF4FB
:1014EC008231F86802F058FD0346002B01D003232B
:1014FC001EE0FB681B68FA681268526922F480626D
:10150C005A61FB681B68FA681268126822F48062E0
:10151C001A60FB68202283F83520FB68002283F8D0
:10152C003620FB68002283F83420002300E00223DD
:10153C0018461837BD4680BD02001000020001009D
:10154C0080B586B000AFF860B9603B601346FB8095
:10155C00FB6893F83530DBB2202B40F0C480BB68BD
:10156C00002B02D0FB88002B01D10123BCE042F2FE
:10157C00107301225E49F86802F00EFD0346002B41
:10158C0001D00223B0E0FB6893F83430012B01D179
:10159C000223A9E0FB68012283F83420FB681B6856
:1015AC00FA681268126822F400621A60FB68222240
:1015BC0083F83520FB68202283F83620FB68002254
:1015CC009A63FB681B68FA681268126842F48062BE
:1015DC001A603B6800224749F86802F0DDFC0346BC
:1015EC00002B01D003237FE0FB681B685B697B61E8
:1015FC00FB681B689B697B617B6936E03968F8681E
:10160C0002F074FE0346002B0FD0FB681B68FA68CF
:10161C001268126822F480621A60FB689B6B202BA4
:10162C0001D1032360E001235EE0BB685A1CBA6061
:10163C00FA6812681269D2B21A70FB88013BFB80FF
:10164C00FB681B685B6903F00403002B0DD0FB885F
:10165C00002B0AD0BB685A1CBA60FA68126812696F
:10166C00D2B21A70FB88013BFB80FB88002BC5D1E2
:10167C002321F86802F000FE0346002B0FD0FB6814
:10168C001B68FA681268126822F480621A60FB68A0
:10169C009B6B042B01D1012326E0032324E0FB6880
:1016AC001B685B693B61FB681A68FB681B681B68FD
:1016BC0043F0010313603B613B69FB681B68FA68EC
:1016CC001268126822F480621A60FB68202283F888
:1016DC003520FB68002283F83620FB68002283F853
:1016EC003420002300E0022318461837BD4680BD85
:1016FC00020010000200010080B586B000AFF86057
:10170C007A601A460B467B8113463B81FB6893F843
:10171C003530DBB2202B6AD17B68002B02D03B89A1
:10172C00002B01D1012363E042F2107301223249F4
:10173C00F86802F031FC0346002B01D0022357E07D
:10174C00FB6893F83430012B01D1022350E0FB6885
:10175C00012283F83420FB681B68FA68126812684F
:10176C0022F400621A60FB68212283F83520FB68A2
:10177C00102283F83620FB6800229A63FB687A6893
:10178C005A62FB683A891A85FB683A895A857B89C3
:10179C0023221946F86801F073FF0346002B0FD083
:1017AC00FB689B6B042B05D1FB68002283F834206B
:1017BC0001231DE0FB68002283F83420032317E08B
:1017CC00FB681B685B697B61FB681B689B697B61C1
:1017DC007B69FB68002283F83420FB681B68FA687D
:1017EC001268526842F4E0625A60002300E002235F
:1017FC0018461837BD4680BD0200100080B588B071
:10180C0000AFF8607A601A460B467B8113463B8129
:10181C00FB6893F83530DBB2202B40F0B1807B684D
:10182C00002B02D03B89002B01D10123A9E042F20D
:10183C00107301225549F86802F0AEFB0346002BE9
:10184C0001D002239DE0FB6893F83430012B01D1C9
:10185C00022396E0FB68012283F83420FB681B68A6
:10186C00FA681268126822F400621A60FB6822227D
:10187C0083F83520FB68102283F83620FB680022A1
:10188C009A63FB687A685A62FB683A891A85FB6826
:10189C003A895A857B8923221946F86801F054FF4E
:1018AC000346002B0FD0FB689B6B042B05D1FB6808
:1018BC00002283F83420012363E0FB68002283F8C4
:1018CC00342003235DE0FB685B8D9BB2012B19D1A7
:1018DC00FB681B68FA681268126822F480621A604E
:1018EC00FB681B685B69FB61FB681B689B69FB61A0
:1018FC00FB69FB681B68FA681268126842F4007294
:10190C001A602FE0FB685B8D9BB2022B19D1FB6830
:10191C001B68FA681268126842F400621A60FB686D
:10192C001B685B69BB61FB681B689B69BB61BB691E
:10193C00FB681B68FA681268126822F480621A60ED
:10194C0010E0FB681B68FA681268126842F4806247
:10195C001A60FB681B685B697B61FB681B689B6991
:10196C007B617B69FB68002283F83420FB681B6871
:10197C00FA681268526842F4E0625A60002300E090
:10198C00022318462037BD4680BD00BF0200100060
:10199C0080B584B000AFF860B9601346FB80FB687B
:1019AC0093F83530DBB2202B50D1BB68002B02D022
:1019BC00FB88002B01D1012349E042F21073012274
:1019CC002549F86802F0E8FA0346002B01D00223FF
:1019DC003DE0FB6893F83430012B01D1022336E053
:1019EC00FB68012283F83420FB681B68FA681268D4
:1019FC00126822F400621A60FB68212283F83520F9
:101A0C00FB68202283F83620FB6800229A63FB686F
:101A1C00BA685A62FB68FA881A85FB68FA885A8594
:101A2C00FB681B68FA681268126842F480621A60DC
:101A3C00FB68002283F83420FB681B68FA68126884
:101A4C00526842F4E0625A60002300E00223184618
:101A5C001037BD4680BD00BF0200100080B584B0B9
:101A6C0000AFF860B9601346FB80FB6893F8353023
:101A7C00DBB2202B50D1BB68002B02D0FB88002B93
:101A8C0001D1012349E042F2107301222549F86883
:101A9C0002F082FA0346002B01D002233DE0FB68E2
:101AAC0093F83430012B01D1022336E0FB6801227C
:101ABC0083F83420FB681B68FA681268126822F4F9
:101ACC0000621A60FB68222283F83520FB68202212
:101ADC0083F83620FB6800229A63FB68BA685A6266
:101AEC00FB68FA881A85FB68FA885A85FB681B68BC
:101AFC00FA681268126842F480621A60FB6800226D
:101B0C0083F83420FB681B68FA681268526842F448
:101B1C00E0625A60002300E0022318461037BD46ED
:101B2C0080BD00BF0200100080B586B000AFF86029
:101B3C007A601A460B467B8113463B81FB6893F80F
:101B4C003530DBB2202B7CD17B68002B02D03B895B
:101B5C00002B01D1012375E042F2107301223B49A5
:101B6C00F86802F019FA0346002B01D0022369E051
:101B7C00FB6893F83430012B01D1022362E0FB683F
:101B8C00012283F83420FB681B68FA68126812681B
:101B9C0022F400621A60FB68212283F83520FB686E
:101BAC00102283F83620FB6800229A63FB687A685F
:101BBC005A62FB683A891A85FB683A895A85FB6830
:101BCC00DB6A234A9A62FB68DB6A224A1A63FB6867
:101BDC00D86A7968FB681B6810331A463B89FEF794
:101BEC0029FC7B8923221946F86801F049FD03463C
:101BFC00002B0FD0FB689B6B042B05D1FB680022DC
:101C0C0083F8342001231DE0FB68002283F8342084
:101C1C00032317E0FB681B68FA681268526842F4E9
:101C2C0000625A60FB681B685B697B61FB681B6820
:101C3C009B697B617B69FB68002283F8342000235D
:101C4C0000E0022318461837BD4680BD0200100084
:101C5C00653B0008553F000880B586B000AFF860C2
:101C6C007A601A460B467B8113463B81FB6893F8DE
:101C7C003530DBB2202B40F091807B68002B02D0FA
:101C8C003B89002B01D1012389E042F21073012220
:101C9C004549F86802F080F90346002B01D0022375
:101CAC007DE0FB6893F83430012B01D1022376E000
:101CBC00FB68012283F83420FB681B68FA68126801
:101CCC00126822F400621A60FB68222283F8352025
:101CDC00FB68102283F83620FB6800229A63FB68AD
:101CEC007A685A62FB683A891A85FB683A895A8580
:101CFC00FB681B6B2D4A9A62FB681B6B2C4A1A63A0
:101D0C00FB68186BFB681B68103319467A683B89B3
:101D1C00FEF790FB7B8923221946F86801F014FD2D
:101D2C000346002B0FD0FB689B6B042B05D1FB6883
:101D3C00002283F83420012331E0FB68002283F871
:101D4C00342003232BE03B89012B08D1FB681B6853
:101D5C00FA681268126822F480621A6007E0FB6865
:101D6C001B68FA681268526842F480525A60FB6829
:101D7C001B68FA681268526842F400625A60FB6889
:101D8C001B685B697B61FB681B689B697B617B697A
:101D9C00FB68002283F83420002300E0022318465D
:101DAC001837BD4680BD00BF020010007D3C000806
:101DBC00553F000880B588B000AFF860B960134695
:101DCC00FB80FB6893F83530DBB2202B40F09C8015
:101DDC00BB68002B02D0FB88002B01D1012394E0BF
:101DEC0042F2107301224B49F86802F0D5F8034611
:101DFC00002B01D0022388E0FB6893F83430012BD0
:101E0C0001D1022381E0FB68012283F83420FB68B6
:101E1C001B68FA681268126822F400621A60FB6888
:101E2C00212283F83520FB68202283F83620FB68BA
:101E3C0000229A63FB68BA685A62FB68FA881A85B2
:101E4C00FB68FA885A85FB68DB6A334A9A62FB683E
:101E5C00DB6A324A1A63FB68D86AB968FB681B688C
:101E6C0010331A46FB88FEF7E5FAFB681B68FA6824
:101E7C001268526842F400625A60FB681B68FA6888
:101E8C001268126842F480621A6042F210730022E7
:101E9C002349F86802F080F80346002B01D0032395
:101EAC0033E0FB681B69B3F5804F09D1FB681B68F5
:101EBC005B69FB61FB681B689B69FB61FB691DE04F
:101ECC00FB681B685B69BB61FB681B689B69BB613A
:101EDC00BB6942F2107300221149F86802F05CF8F9
:101EEC000346002B01D003230FE0FB681B685B69E2
:101EFC007B61FB681B689B697B617B69FB680022CB
:101F0C0083F83420002300E0022318462037BD4616
:101F1C0080BD00BF02001000E93B0008553F0008DF
:101F2C000200010080B586B000AFF860B9601346BE
:101F3C00FB80FB6893F83530DBB2202B77D1BB6884
:101F4C00002B02D0FB88002B01D1012370E042F260
:101F5C00107301223849F86802F01EF80346002B72
:101F6C0001D0022364E0FB6893F83430012B01D1DB
:101F7C0002235DE0FB68012283F83420FB681B68B8
:101F8C00FA681268126822F400621A60FB68222256
:101F9C0083F83520FB68202283F83620FB6800226A
:101FAC009A63FB68BA685A62FB68FA881A85FB6800
:101FBC00FA885A85FB681B6B204A9A62FB681B6B7C
:101FCC001F4A1A63FB68186BFB681B6810331946B1
:101FDC00BA68FB88FEF72EFAFB681B68FA68126871
:101FEC00526842F400625A60FB681B68FA68126817
:101FFC00126842F480621A6042F210730022114996
:10200C00F86801F0C9FF0346002B01D003230FE051
:10201C00FB681B685B697B61FB681B689B697B6168
:10202C007B69FB68002283F83420002300E0022344
:10203C0018461837BD4680BD02001000013D00084F
:10204C00553F00080200010080B586B002AFF86071
:10205C00084611461A4603467B810B463B811346C4
:10206C00FB80FB6893F83530DBB2202B40F0B3805B
:10207C00BB69002B02D0BB8B002B01D10123ABE041
:10208C0042F2107301225649F86801F085FF0346AD
:10209C00002B01D002239FE0FB6893F83430012B16
:1020AC0001D1022398E0FB68012283F83420FB68FD
:1020BC001B68FA681268126822F400621A60FB68E6
:1020CC00212283F83520FB68402283F83620FB68F8
:1020DC0000229A63F8883A8979893B6A009303460F
:1020EC00F86801F0D7FB0346002B44D0FB689B6BD0
:1020FC00042B05D1FB68002283F8342001236BE00C
:10210C00FB68002283F83420032365E0396AF86801
:10211C0002F03AF80346002B0FD0FB689B6B042BA4
:10212C0009D1FB681B68FA681268126842F40072E5
:10213C001A60012350E003234EE0FB681A68BB6968
:10214C00591CB9611B781361BB8B013BBB83FB68CA
:10215C001B685B6903F00403002B0CD0BB8B002BBA
:10216C0009D0FB681A68BB69591CB9611B781361EB
:10217C00BB8B013BBB83BB8B002BC7D1396AF86887
:10218C0002F002F80346002B0FD0FB689B6B042B6C
:10219C0009D1FB681B68FA681268126842F4007275
:1021AC001A60012318E0032316E0FB681B68FA6829
:1021BC001268126842F400721A60FB68202283F8DD
:1021CC003520FB68002283F83620FB68002283F858
:1021DC003420002300E0022318461037BD4680BD92
:1021EC000200100080B58AB002AFF86008461146B4
:1021FC001A4603467B810B463B811346FB80FB68EA
:10220C0093F83530DBB2202B40F07C81BB6A002B7D
:10221C0002D0BB8D002B01D1012374E142F210736B
:10222C0001229749F86801F0B7FE0346002B01D054
:10223C00022368E1FB6893F83430012B01D10223AF
:10224C0061E1FB68012283F83420FB681B68FA68A3
:10225C001268126822F400621A60FB68222283F86A
:10226C003520FB68402283F83620FB6800229A63F5
:10227C00F8883A8979893B6B00930346F86801F03A
:10228C0095FB0346002B0FD0FB689B6B042B05D1F1
:10229C00FB68002283F83420012334E1FB68002220
:1022AC0083F8342003232EE1BB8D012B1BD1FB685B
:1022BC001B68FA681268126822F480621A6072B69F
:1022CC00FB681B685B69FB61FB681B689B69FB61B6
:1022DC00FB69FB681B68FA681268126842F40072AA
:1022EC001A6062B6FCE0BB8D022B1BD1FB681B682D
:1022FC00FA681268126842F400621A6072B6FB68DF
:10230C001B685B69BB61FB681B689B69BB61BB6934
:10231C00FB681B68FA681268126822F480621A6003
:10232C0062B6DDE0FB681B68FA681268126842F45A
:10233C0080621A60FB681B685B697B61FB681B68C9
:10234C009B697B617B69CBE0BB8D032B00F29C808E
:10235C00BB8D012B1AD1396BF86801F0C7FF03460E
:10236C00002B07D0FB689B6B202B01D10323CAE009
:10237C000123C8E0BB6A5A1CBA62FA681268126977
:10238C00D2B21A70BB8D013BBB85A9E0BB8D022B71
:10239C002BD13B6B00223B49F86801F0FDFD034655
:1023AC00002B01D00323AEE072B6FB681B68FA6801
:1023BC001268126842F400721A60BB6A5A1CBA6244
:1023CC00FA6812681269D2B21A70BB8D013BBB85D8
:1023DC0062B6BB6A5A1CBA62FA6812681269D2B247
:1023EC001A70BB8D013BBB857AE03B6B0022254903
:1023FC00F86801F0D1FD0346002B01D0032382E0E5
:10240C00FB681B68FA681268126822F480621A6012
:10241C0072B6BB6A5A1CBA62FA6812681269D2B2F6
:10242C001A70BB8D013BBB853B6B00221549F868CC
:10243C0001F0B2FD0346002B01D0032363E0FB68DF
:10244C001B68FA681268126842F400721A60BB6A60
:10245C005A1CBA62FA6812681269D2B21A70BB8D31
:10246C00013BBB8562B6BB6A5A1CBA62FA68126839
:10247C001269D2B21A70BB8D013BBB8530E000BF34
:10248C000200100004000100396BF86801F02EFF07
:10249C000346002B07D0FB689B6B202B01D1032339
:1024AC0031E001232FE0BB6A5A1CBA62FA68126849
:1024BC001269D2B21A70BB8D013BBB85FB681B68DD
:1024CC005B6903F00403002B0AD0BB6A5A1CBA6286
:1024DC00FA6812681269D2B21A70BB8D013BBB85C7
:1024EC00BB8D002B7FF430AFFB68202283F83520A6
:1024FC00FB68002283F83620FB68002283F8342026
:10250C00002300E0022318462037BD4680BD00BFE3
:10251C0080B586B002AFF860084611461A460346ED
:10252C007B810B463B811346FB80FB6893F835306F
:10253C00DBB2202B64D1BB69002B02D0BB8B002BF0
:10254C0001D101235DE042F2107301222F49F8689A
:10255C0001F022FD0346002B01D0022351E0FB6861
:10256C0093F83430012B01D102234AE0FB6801229D
:10257C0083F83420FB681B68FA681268126822F42E
:10258C0000621A60FB68212283F83520FB68402228
:10259C0083F83620FB6800229A63FB68BA695A629A
:1025AC00FB68BA8B1A85FB68BA8B5A85F8883A890E
:1025BC007989232300930346F86801F06BF90346ED
:1025CC00002B0FD0FB689B6B042B05D1FB68002202
:1025DC0083F83420012314E0FB68002283F83420B4
:1025EC0003230EE0FB68002283F83420FB681B6891
:1025FC00FA681268526842F4E0625A60002300E004
:10260C00022318461037BD4680BD00BF02001000E3
:10261C0080B58AB002AFF860084611461A460346E8
:10262C007B810B463B811346FB80FB6893F835306E
:10263C00DBB2202B40F0B480BB6A002B02D0BB8DE8
:10264C00002B01D10123ACE042F210730122574957
:10265C00F86801F0A1FC0346002B01D00223A0E096
:10266C00FB6893F83430012B01D1022399E0FB680D
:10267C00012283F83420FB681B68FA681268126820
:10268C0022F400621A60FB68222283F83520FB6872
:10269C00402283F83620FB6800229A63FB68BA6AF2
:1026AC005A62FB68BA8D1A85FB68BA8D5A85F88810
:1026BC003A897989232300930346F86801F076F967
:1026CC000346002B0FD0FB689B6B042B05D1FB68DA
:1026DC00002283F83420012363E0FB68002283F896
:1026EC00342003235DE0FB685B8D9BB2012B19D179
:1026FC00FB681B68FA681268126822F480621A6020
:10270C00FB681B685B69FB61FB681B689B69FB6171
:10271C00FB69FB681B68FA681268126842F4007265
:10272C001A602FE0FB685B8D9BB2022B19D1FB6802
:10273C001B68FA681268126842F400621A60FB683F
:10274C001B685B69BB61FB681B689B69BB61BB69F0
:10275C00FB681B68FA681268126822F480621A60BF
:10276C0010E0FB681B68FA681268126842F4806219
:10277C001A60FB681B685B697B61FB681B689B6963
:10278C007B617B69FB68002283F83420FB681B6843
:10279C00FA681268526842F4E0625A60002300E062
:1027AC00022318462037BD4680BD00BF0200100032
:1027BC0080B586B002AFF860084611461A4603464B
:1027CC007B810B463B811346FB80FB6893F83530CD
:1027DC00DBB2202B76D1BB69002B02D0BB8B002B3C
:1027EC0001D101236FE042F2107301223849F868DD
:1027FC0001F0D2FB0346002B01D0022363E0FB68FF
:10280C0093F83430012B01D102235CE0FB680122E8
:10281C0083F83420FB681B68FA681268126822F48B
:10282C0000621A60FB68212283F83520FB68402285
:10283C0083F83620FB6800229A63FB68BA695A62F7
:10284C00FB68BA8B1A85FB68BA8B5A85FB68DB6A06
:10285C00204A9A62FB68DB6A1F4A1A63FB68D86AD3
:10286C00B969FB681B6810331A46BB8BFDF7E2FD98
:10287C00F8883A897989232300930346F86801F094
:10288C0009F80346002B0FD0FB689B6B042B05D17A
:10289C00FB68002283F83420012314E0FB6800223B
:1028AC0083F8342003230EE0FB681B68FA68126877
:1028BC00526842F400625A60FB68002283F83420AC
:1028CC00002300E0022318461037BD4680BD00BF30
:1028DC0002001000B13D0008553F000880B588B0DB
:1028EC0002AFF860084611461A4603467B810B4638
:1028FC003B811346FB80FB6893F83530DBB2202B11
:10290C0040F094803B6A002B02D0BB8C002B01D191
:10291C0001238CE042F2107301224749F86801F060
:10292C003BFB0346002B01D0022380E0FB6893F8AD
:10293C003430012B01D1022379E0FB68012283F8AA
:10294C003420FB681B68FA681268126822F4006273
:10295C001A60FB68222283F83520FB68402283F83A
:10296C003620FB6800229A63FB683A6A5A62FB685D
:10297C00BA8C1A85FB68BA8C5A85FB681B6B2F4A7C
:10298C009A62FB681B6B2E4A1A63FB68186BFB6818
:10299C001B68103319463A6ABB8CFDF74BFDF8885F
:1029AC003A897989232300930346F86800F0FEFFE7
:1029BC000346002B0FD0FB689B6B042B05D1FB68E7
:1029CC00002283F83420012331E0FB68002283F8D5
:1029DC00342003232BE0BB8C012B08D1FB681B6834
:1029EC00FA681268126822F480621A6007E0FB68C9
:1029FC001B68FA681268526842F480525A60FB688D
:102A0C001B68FA681268526842F400625A60FB68EC
:102A1C001B685B697B61FB681B689B697B617B69DD
:102A2C00FB68002283F83420002300E002231846C0
:102A3C001837BD4680BD00BF02001000353E0008AF
:102A4C00553F000880B58AB000AFF8607A603B60F3
:102A5C000B467B8100237B6100237B6200233B625E
:102A6C000023FB610123BB61FB6893F83530DBB2BB
:102A7C00202B40F0F28042F2107301227949F86861
:102A8C0001F08AFA0346002B01D00223E6E0FB6832
:102A9C0093F83430012B01D10223DFE0FB680122D3
:102AAC0083F83420FB681B68FA681268126822F4F9
:102ABC0000621A60FB68242283F83520FB68002230
:102ACC009A63FB681B68FA681268126842F4807299
:102ADC001A603B6800224FF00111F86801F05CFAB3
:102AEC000346002B01D00323B8E0FB681B687A89EE
:102AFC00D2B202F0FE021A6102F0AAFA7861FB6807
:102B0C001B685B6903F00203002B14BF0123002335
:102B1C00DBB27B62FB681B685B6903F48063002B90
:102B2C0014BF01230023DBB23B62FB6893F8353002
:102B3C00DBB2FB6129E03B68002B07D002F088FA7E
:102B4C0002467B69D21A3B689A4203D9FB68A022E1
:102B5C0083F83520FB681B685B6903F00203002BCC
:102B6C0014BF01230023DBB27B62FB681B685B692B
:102B7C0003F48063002B14BF01230023DBB23B6200
:102B8C00FB6893F83530DBB2FB617B6A002B05D117
:102B9C003B6A002B02D1FB69A02BCCD1FB68202215
:102BAC0083F83520FB681B685B6903F00203002B7C
:102BBC0026D0FB681B68FA681268126842F400722F
:102BCC001A60FB681B685B693B61FB681B689B694F
:102BDC003B613B6942F2107301222249F86801F013
:102BEC00DBF90346002B01D0032337E0FB682022DE
:102BFC0083F83520FB68002283F8342000232DE075
:102C0C00FB681B68FA681268126842F400721A605A
:102C1C00FB681B68FA681268526922F480625A6178
:102C2C0042F2107301220F49F86801F0B5F903461E
:102C3C00002B01D0032311E0BB695A1CBA617A68DE
:102C4C009342FFF43EAFFB68202283F83520FB68EB
:102C5C00002283F83420012300E002231846283791
:102C6C00BD4680BD0200100080B586B000AF786014
:102C7C0000237B6100233B610023FB600023BB60CE
:102C8C007B6893F83630DBB2102B06D07B6893F858
:102C9C003630DBB2402B40F092807B681B689B691E
:102CAC0003F00403002B44D07B681B685B6903F0C2
:102CBC008003002B14BF01230023DBB27B617B68F4
:102CCC001B685B6803F48063002B14BF0123002393
:102CDC00DBB23B617B681B685B6903F00403002B70
:102CEC0014BF01230023DBB2FB607B681B685B68AD
:102CFC0003F40073002B14BF01230023DBB2BB6071
:102D0C007B69012B09D13B69012B06D1FB68002B98
:102D1C0003D1786800F076FA50E0FB68012B40F0A4
:102D2C001781BB68012B40F01381786800F092FA90
:102D3C000EE17B681B685B6903F04003002B14BF3A
:102D4C0001230023DBB27B617B681B685B6803F4A7
:102D5C008063002B14BF01230023DBB23B617B6833
:102D6C001B685B6903F00403002B14BF01230023D1
:102D7C00DBB2FB607B681B685B6803F40073002BA1
:102D8C0014BF01230023DBB2BB607B69012B09D18B
:102D9C003B69012B06D1FB68002B03D1786800F04E
:102DAC009DFA0BE0FB68012B40F0D280BB68012B35
:102DBC0040F0CE80786800F0F3FAC9E0C8E07B6898
:102DCC001B685B6903F00203002B14BF0123002373
:102DDC00DBB27B617B681B685B6803F40073002BC0
:102DEC0014BF01230023DBB23B617B681B685B696A
:102DFC0003F01003002B14BF01230023DBB2FB6094
:102E0C007B681B689B6903F00403002B14BF012330
:102E1C000023DBB2BB607B69012B06D13B69012B24
:102E2C0003D1786800F0C2FB93E0FB68012B06D15C
:102E3C003B69012B03D1786800F0CCFB89E0BB68BF
:102E4C00012B42D17B681B685B6903F08003002B6C
:102E5C0014BF01230023DBB27B617B681B685B68BA
:102E6C0003F48063002B14BF01230023DBB23B610E
:102E7C007B681B685B6903F00403002B14BF012300
:102E8C000023DBB2FB607B681B685B6803F4007398
:102E9C00002B14BF01230023DBB2BB607B69012B29
:102EAC0009D13B69012B06D1FB68002B03D1786853
:102EBC0000F0FCFA4DE0FB68012B4AD1BB68012BFA
:102ECC0047D1786800F012FB43E07B681B685B69B4
:102EDC0003F04003002B14BF01230023DBB27B6102
:102EEC007B681B685B6803F48063002B14BF0123B1
:102EFC000023DBB23B617B681B685B6903F0040356
:102F0C00002B14BF01230023DBB2FB607B681B6822
:102F1C005B6803F40073002B14BF01230023DBB2A6
:102F2C00BB607B69012B09D13B69012B06D1FB6886
:102F3C00002B03D1786800F0F9FA0AE0FB68012B4A
:102F4C0007D1BB68012B04D1786800F00FFB00E0BF
:102F5C0000BF00BF1837BD4680BD00BF80B586B02E
:102F6C0000AF786000237B6100233B610023FB6092
:102F7C007B681B685B6903F48073002B14BF01230F
:102F8C000023DBB27B617B681B685B6803F4807396
:102F9C00002B14BF01230023DBB23B617B69012BA7
:102FAC0018D13B69012B15D17B689B6B43F0010257
:102FBC007B689A637B681B687A681268526922F492
:102FCC0080725A617B681B687A681268126842F4D6
:102FDC0000421A607B681B685B6903F40073002B6A
:102FEC0014BF01230023DBB27B617B681B685B6829
:102FFC0003F48073002B14BF01230023DBB23B616D
:10300C007B69012B10D13B69012B0DD17B689B6B2C
:10301C0043F002027B689A637B681B687A681268CB
:10302C00526922F400725A617B681B685B6903F475
:10303C008063002B14BF01230023DBB27B617B6810
:10304C001B685B6803F48073002B14BF01230023FF
:10305C00DBB23B617B69012B33D13B69012B30D156
:10306C007B6893F83630DBB27B617B685B8D9BB2FF
:10307C003B617B6893F83530DBB2FB607B69202BBE
:10308C0009D13B69002B06D1FB68212B03D1786851
:10309C0000F0CEFA15E07B689B6B43F004027B6872
:1030AC009A637B681B687A681268126842F4007233
:1030BC001A607B681B687A681268526922F4806215
:1030CC005A617B681B685B6903F40063002B14BFB7
:1030DC0001230023DBB27B617B681B685B6803F414
:1030EC008073002B14BF01230023DBB23B617B698F
:1030FC00012B10D13B69012B0DD17B689B6B43F0ED
:10310C0008027B689A637B681B687A68126852694C
:10311C0022F400625A617B689B6B002B0ED07B689B
:10312C00202283F835207B681B687A681268126845
:10313C0022F400621A60786800F040F800BF18377B
:10314C00BD4680BD80B483B000AF786000BF0C3743
:10315C00BD4680BC704700BF80B483B000AF7860C0
:10316C0000BF0C37BD4680BC704700BF80B483B035
:10317C0000AF786000BF0C37BD4680BC704700BF05
:10318C0080B483B000AF786000BF0C37BD4680BC04
:10319C00704700BF80B483B000AF786000BF0C37BD
:1031AC00BD4680BC704700BF80B483B000AF786070
:1031BC0000BF0C37BD4680BC704700BF80B483B0E5
:1031CC0000AF786000BF0C37BD4680BC704700BFB5
:1031DC0080B483B000AF78607B6893F83530DBB295
:1031EC0018460C37BD4680BC704700BF80B483B016
:1031FC0000AF78607B689B6B18460C37BD4680BC73
:10320C00704700BF80B483B000AF78607B685B8D83
:10321C009BB2002B08D17B681B687A6812685268D5
:10322C0022F480625A600FE07B681A687B685B6AE4
:10323C00581C796848621B7813617B685B8D9BB264
:10324C00013B9AB27B685A85002318460C37BD4661
:10325C0080BC704780B582B000AF78607B685B8DB6
:10326C009BB2002B10D07B681A687B685B6A581C79
:10327C00796848621B7813617B685B8D9BB2013B5C
:10328C009AB27B685A8524E07B681B687A6812685E
:10329C00526822F4E0625A607B681B687A68126894
:1032AC00126842F400721A607B6893F83630DBB215
:1032BC00402B07D17B68202283F835207868FFF7F4
:1032CC0069FF06E07B68202283F835207868FFF7D9
:1032DC0039FF002318460837BD4680BD80B584B041
:1032EC0000AF78600023FB607B685B8D9BB2FB605A
:1032FC00FB68032B11D97B685B6A591C7A68516295
:10330C007A6812681269D2B21A707B685B8D9BB2B4
:10331C00013B9AB27B685A853CE0FB68022B02D0D9
:10332C00FB68032B08D17B681B687A6812685268AB
:10333C0022F480625A602DE07B681B687A68126800
:10334C00526822F4E0625A607B685B6A591C7A68A6
:10335C0051627A6812681269D2B21A707B685B8DFE
:10336C009BB2013B9AB27B685A857B6893F83630E6
:10337C00DBB2402B07D17B68202283F8352078689C
:10338C00FFF712FF06E07B68202283F8352078686F
:10339C00FFF7E2FE002318461037BD4680BD00BF84
:1033AC0080B582B000AF78607B685B8D9BB2032BDD
:1033BC0019D17B681B687A681268126822F48062E3
:1033CC001A607B685B6A591C7A6851627A68126869
:1033DC001269D2B21A707B685B8D9BB2013B9AB2B8
:1033EC007B685A855DE07B685B8D9BB2022B47D175
:1033FC007B681B687A681268526822F440725A60C3
:10340C007B681B687A681268126842F400721A6052
:10341C007B685B6A591C7A6851627A681268126917
:10342C00D2B21A707B685B8D9BB2013B9AB27B68FF
:10343C005A857B685B6A591C7A6851627A68126893
:10344C001269D2B21A707B685B8D9BB2013B9AB247
:10345C007B685A857B6893F83630DBB2402B07D1FA
:10346C007B68202283F835207868FFF79DFE18E0F2
:10347C007B68202283F835207868FFF76DFE10E01A
:10348C007B685B6A591C7A6851627A6812681269A7
:10349C00D2B21A707B685B8D9BB2013B9AB27B688F
:1034AC005A85002318460837BD4680BD80B483B0CA
:1034BC0000AF78607B685B8D9BB2002B0FD07B6874
:1034CC001A687B685B6A581C796848621B781361C0
:1034DC007B685B8D9BB2013B9AB27B685A8500235B
:1034EC0018460C37BD4680BC704700BF80B483B013
:1034FC0000AF78607B685B8D9BB2002B0FD07B6834
:10350C001A687B685B6A581C796848621B7813617F
:10351C007B685B8D9BB2013B9AB27B685A8500231A
:10352C0018460C37BD4680BC704700BF80B483B0D2
:10353C0000AF78607B685B8D9BB2002B10D07B68F2
:10354C005B6A591C7A6851627A6812681269D2B245
:10355C001A707B685B8D9BB2013B9AB27B685A8573
:10356C00002318460C37BD4680BC704780B483B02E
:10357C0000AF78607B685B8D9BB2002B10D07B68B2
:10358C005B6A591C7A6851627A6812681269D2B205
:10359C001A707B685B8D9BB2013B9AB27B685A8533
:1035AC00002318460C37BD4680BC704780B485B0EC
:1035BC0000AF78607B681B685B69FB607B681B688D
:1035CC009B69FB60FB68002318461437BD4680BC22
:1035DC00704700BF80B584B000AF78607B681B6813
:1035EC007A681268526822F4E0625A607B681B6841
:1035FC005B69FB607B681A687B681B681B6843F01F
:10360C0001031360FB60FB687B681B687A681268B7
:10361C00126822F480621A607B68202283F83520BD
:10362C007868FFF7ADFD002318461037BD4680BD06
:10363C0080B582B000AF78607B681B687A681268CE
:10364C00526822F4E0625A607B681B687A681268E0
:10365C00526922F480625A617B681B687A6812682E
:10366C00126822F480621A607B68202283F835206D
:10367C007868FFF77BFD002318460837BD4680BDF0
:10368C0080B584B000AFF8600B467A607B81FB6834
:10369C001B68FA681268126842F480721A607B68C0
:1036AC0000224FF00111F86800F076FC0346002B65
:1036BC0001D003233FE0FB681B69B3F5804F07D1B2
:1036CC00FB681B687A89D2B202F0FE021A6121E013
:1036DC00FB681B687A89D21152B202F0060252B210
:1036EC0062F00F0252B2D2B21A617A681449F868C9
:1036FC0000F0DCFC0346002B07D0FB689B6B042B13
:10370C0001D1012317E0032315E0FB681B687A89BC
:10371C00D2B21A617A680B49F86800F0C7FC03460C
:10372C00002B07D0FB689B6B042B01D1012302E01B
:10373C00032300E0002318461037BD4680BD00BFB0
:10374C00080001000200010080B586B000AFF860EF
:10375C000B467A607B81FB681B68FA6812681268FA
:10376C0042F480621A60FB681B68FA68126812687F
:10377C0042F480721A607B6800224FF00111F868E5
:10378C0000F00AFC0346002B01D003237AE0FB680F
:10379C001B69B3F5804F08D1FB681B687A89D2B2DC
:1037AC0042F00102D2B21A615BE0FB681B687A89B5
:1037BC00D21152B202F0060252B262F00F0252B2B1
:1037CC00D2B21A617A683149F86800F06FFC03468E
:1037DC00002B07D0FB689B6B042B01D1012351E01C
:1037EC0003234FE0FB681B687A89D2B21A617A68AE
:1037FC002749F86800F05AFC0346002B07D0FB68F9
:10380C009B6B042B01D101233CE003233AE0FB68C2
:10381C001B685B697B61FB681B689B697B617B69CF
:10382C00FB681B68FA681268126842F480721A60AE
:10383C007B6800224FF00111F86800F0ADFB0346E5
:10384C00002B01D003231DE0FB681B687A89D21181
:10385C0052B202F0060252B262F00E0252B2D2B270
:10386C001A617A680A49F86800F020FC0346002BBC
:10387C0007D0FB689B6B042B01D1012302E00323CF
:10388C0000E0002318461837BD4680BD0800010033
:10389C000200010080B586B000AFF8600846114602
:1038AC001A4603467B810B463B811346FB80FB6823
:1038BC001B68FA681268126842F480721A603B6ADC
:1038CC0000224FF00111F86800F066FB0346002B54
:1038DC0001D0032363E0FB681B687A89D2B202F043
:1038EC00FE021A613A6A3049F86800F0DFFB0346C1
:1038FC00002B07D0FB689B6B042B01D101234EE0FE
:10390C0003234CE0FB681B685B697B61FB681B68ED
:10391C009B697B617B69396AF86800F035FC03466A
:10392C00002B0FD0FB689B6B042B09D1FB681B6829
:10393C00FA681268126842F400721A6001232EE0D1
:10394C0003232CE0FB88012B05D1FB681B683A890B
:10395C00D2B21A6122E0FB681B683A89120A92B251
:10396C00D2B21A61396AF86800F00EFC0346002BDB
:10397C000FD0FB689B6B042B09D1FB681B68FA68A2
:10398C001268126842F400721A60012307E00323E4
:10399C0005E0FB681B683A89D2B21A61002318460D
:1039AC001837BD4680BD00BF0200010080B586B04F
:1039BC0000AFF860084611461A4603467B810B4659
:1039CC003B811346FB80FB681B68FA68126812681F
:1039DC0042F480621A60FB681B68FA68126812680D
:1039EC0042F480721A603B6A00224FF00111F868B1
:1039FC0000F0D2FA0346002B01D00323A6E0FB68AB
:103A0C001B687A89D2B202F0FE021A613A6A5149F5
:103A1C00F86800F04BFB0346002B07D0FB689B6B50
:103A2C00042B01D1012391E003238FE0FB681B6879
:103A3C005B697B61FB681B689B697B617B69396A8D
:103A4C00F86800F0A1FB0346002B0FD0FB689B6BC2
:103A5C00042B09D1FB681B68FA681268126842F4DF
:103A6C0000721A60012371E003236FE0FB88012BC5
:103A7C0005D1FB681B683A89D2B21A6122E0FB6857
:103A8C001B683A89120A92B2D2B21A61396AF86882
:103A9C0000F07AFB0346002B0FD0FB689B6B042BCA
:103AAC0009D1FB681B68FA681268126842F400724C
:103ABC001A6001234AE0032348E0FB681B683A893B
:103ACC00D2B21A61396AF86800F05EFB0346002B2B
:103ADC000FD0FB689B6B042B09D1FB681B68FA6841
:103AEC001268126842F400721A6001232EE003235C
:103AFC002CE0FB681B68FA681268126842F480724A
:103B0C001A603B6A00224FF00111F86800F044FA89
:103B1C000346002B01D0032318E0FB681B687A894D
:103B2C00D2B242F00102D2B21A613A6A0949F8687B
:103B3C0000F0BCFA0346002B07D0FB689B6B042BF0
:103B4C0001D1012302E0032300E0002318461837BB
:103B5C00BD4680BD0200010080B584B000AF786026
:103B6C007B685B6AFB60232300221B49F86800F02A
:103B7C0013FA0346002B05D0FB689B6B43F0200225
:103B8C00FB689A63FB681B68FA681268126842F457
:103B9C0000721A60FB681B68FA681268526822F49B
:103BAC0000625A60FB6800225A85FB68202283F869
:103BBC003520FB68002283F83620FB689B6B002BBA
:103BCC0003D0F868FFF7FAFA02E0F868FFF7BAFAE0
:103BDC0000BF1037BD4680BD0400010080B584B025
:103BEC0000AF78607B685B6AFB60232300224FF494
:103BFC008231F86800F0D0F90346002B05D0FB6841
:103C0C009B6B43F02002FB689A63FB681B68FA68A5
:103C1C001268526922F480625A61FB681B68FA6868
:103C2C001268126822F480621A60FB681B68FA68DA
:103C3C001268526822F400625A60FB6800225A85AE
:103C4C00FB68202283F83520FB68002283F836209D
:103C5C00FB689B6B002B03D0F868FFF7AFFA02E010
:103C6C00F868FFF783FA00BF1037BD4680BD00BF70
:103C7C0080B584B000AF78607B685B6AFB60FB68E2
:103C8C001B68FA681268126822F480621A60FB687A
:103C9C001B68FA681268126842F400721A60FB68BA
:103CAC001B68FA681268526822F480525A60FB68EA
:103CBC001B68FA681268526822F400625A60FB684A
:103CCC0000225A85FB68202283F83520FB680022ED
:103CDC0083F83620FB689B6B002B03D0F868FFF74A
:103CEC006DFA02E0F868FFF737FA00BF1037BD46EF
:103CFC0080BD00BF80B584B000AF78607B685B6A24
:103D0C00FB602321F86800F0B7FA0346002B10D0B3
:103D1C00FB689B6B042B06D1FB689B6B43F0040286
:103D2C00FB689A6305E0FB689B6B43F02002FB6821
:103D3C009A63FB681B685B69BB60FB681A68FB686D
:103D4C001B681B6843F001031360BB60BB68FB6816
:103D5C001B68FA681268126822F480621A60FB68A9
:103D6C001B68FA681268526822F400625A60FB6899
:103D7C0000225A85FB68202283F83520FB6800223C
:103D8C0083F83620FB689B6B002B03D0F868FFF799
:103D9C0015FA02E0F868FFF7F3F900BF1037BD46DB
:103DAC0080BD00BF80B584B000AF78607B685B6A73
:103DBC00FB60232300221B49F86800F0EDF8034652
:103DCC00002B05D0FB689B6B43F02002FB689A63C9
:103DDC00FB681B68FA681268126842F400721A6079
:103DEC00FB681B68FA681268526822F400625A6019
:103DFC00FB6800225A85FB68202283F83520FB687B
:103E0C00002283F83620FB689B6B002B03D0F868EC
:103E1C00FFF7D4F902E0F868FFF7BCF900BF1037E0
:103E2C00BD4680BD0400010080B584B000AF786051
:103E3C007B685B6AFB60FB681B68FA681268126837
:103E4C0022F480621A60FB681B68FA6812681268B8
:103E5C0042F400721A60FB681B68FA6812685268B8
:103E6C0022F480525A60FB681B68FA681268526828
:103E7C0022F400625A60FB6800225A85FB682022FB
:103E8C0083F83520FB68002283F83620FB689B6B97
:103E9C00002B03D0F868FFF791F902E0F868FFF700
:103EAC0083F900BF1037BD4680BD00BF80B485B01C
:103EBC0000AF786039600023FB607B685B68214A47
:103ECC0093420FD87B685B685B003A68B2FBF3F3F4
:103EDC00FB60FB68C3F30B03032B01D804232BE01B
:103EEC00FB6829E04FF40043FB607B689B68002B68
:103EFC000BD17B685A6813465B0013443A68B2FBDB
:103F0C00F3F3FA681343FB600EE07B685A681346C0
:103F1C009B0013449A0013443A68B2FBF3F2FB681B
:103F2C00134343F48043FB60FB68C3F30B03002B88
:103F3C0001D1012300E0FB6818461437BD4680BC54
:103F4C00704700BFA086010080B584B000AF7860D8
:103F5C007B685B6AFB60FB681B68FA681268126816
:103F6C0022F480621A60FB6800225A85FB682022CA
:103F7C0083F83520FB68002283F83620FB689B6BA6
:103F8C0043F01002FB689A63F868FFF717F900BF5B
:103F9C001037BD4680BD00BF80B586B000AFF8605D
:103FAC00B9603B601346FB7100237B6101F050F854
:103FBC007861FB79002B53D118E03B68B3F1FF3FDC
:103FCC0014D03B68002B07D001F042F802467B6905
:103FDC00D21A3B689A4209D9FB68202283F8352013
:103FEC00FB68002283F8342003235AE0BB681B0CC7
:103FFC00DBB2012B0CD1FB681B685B69DA43BB6835
:10400C0013409BB2002B14BF01230023DBB20BE047
:10401C00FB681B689B69DA43BB6813409BB2002B9F
:10402C0014BF01230023DBB2002BC6D138E03B6860
:10403C00B3F1FF3F14D03B68002B07D001F008F818
:10404C0002467B69D21A3B689A4209D9FB68202246
:10405C0083F83520FB68002283F83420032320E00A
:10406C00BB681B0CDBB2012B0CD1FB681B685B69BA
:10407C00DA43BB6813409BB2002B0CBF0123002317
:10408C00DBB20BE0FB681B689B69DA43BB6813402F
:10409C009BB2002B0CBF01230023DBB2002BC6D13B
:1040AC00002318461837BD4680BD00BF80B586B0CA
:1040BC0000AFF860B9607A6000237B6100F0C8FF44
:1040CC0078613CE0FB681B685B6903F48063002B40
:1040DC001CD0FB681B68FA681268126842F4007204
:1040EC001A60FB681B68FA681268526922F48062D5
:1040FC005A61FB6804229A63FB68202283F83520FE
:10410C00FB68002283F83420012339E07B68B3F18B
:10411C00FF3F14D07B68002B07D000F099FF0246BC
:10412C007B69D21A7B689A4209D9FB68202283F8F2
:10413C003520FB68002283F83420032320E0BB6881
:10414C001B0CDBB2012B0CD1FB681B685B69DA43DF
:10415C00BB6813409BB2002B14BF01230023DBB2BE
:10416C000BE0FB681B689B69DA43BB6813409BB28E
:10417C00002B14BF01230023DBB2002BA2D10023A0
:10418C0018461837BD4680BD80B584B000AF786046
:10419C00396000F05DFFF86026E0786800F0F4F814
:1041AC000346002B01D0012326E03B68B3F1FF3F0F
:1041BC001AD03B68002B07D000F04AFF0246FB6880
:1041CC00D21A3B689A420FD97B689B6B43F0200252
:1041DC007B689A637B68202283F835207B680022F9
:1041EC0083F83420032307E07B681B685B6903F0CA
:1041FC008003002BD1D0002318461037BD4680BD5C
:10420C0080B584B000AF7860396000F021FFF860B1
:10421C0026E0786800F0B8F80346002B01D00123A3
:10422C0026E03B68B3F1FF3F1AD03B68002B07D068
:10423C0000F00EFF0246FB68D21A3B689A420FD977
:10424C007B689B6B43F020027B689A637B6820221F
:10425C0083F835207B68002283F83420032307E0A1
:10426C007B681B685B6903F00403002BD1D000232F
:10427C0018461037BD4680BD80B584B000AF78605D
:10428C0039600023FB6000F0E3FEF86022E0786800
:10429C0000F07AF80346002B01D0012322E03B68A2
:1042AC00002B07D000F0D4FE0246FB68D21A3B6804
:1042BC009A420FD97B689B6B43F020027B689A6310
:1042CC007B68202283F835207B68002283F8342019
:1042DC00032307E07B681B685B6903F01003002B6A
:1042EC00D5D0002318461037BD4680BD80B584B0AC
:1042FC0000AF786039600023FB6000F0A9FEF86025
:10430C0036E07B681B685B6903F01003002B14D04C
:10431C007B681B687A681268526922F010025A6135
:10432C007B6800229A637B68202283F835207B68A7
:10433C00002283F83420012322E03B68002B07D0B5
:10434C0000F086FE0246FB68D21A3B689A420FD9EF
:10435C007B689B6B43F020027B689A637B6820220E
:10436C0083F835207B68002283F83420032307E090
:10437C007B681B685B6903F04003002BC1D00023F2
:10438C0018461037BD4680BD80B483B000AF78604E
:10439C007B681B685B6903F48063002B14D07B681B
:1043AC001B687A681268526922F480625A617B68D1
:1043BC0004229A637B68202283F835207B680022D4
:1043CC0083F83420012300E0002318460C37BD4647
:1043DC0080BC704780B400AF154A154B1B6843F086
:1043EC00010313601249124B5A68124B13404B6075
:1043FC000F4A0F4B1B6823F0847323F48033136034
:10440C000B4A0B4B1B6823F480231360084A084BA0
:10441C005B6823F4FE035360054B4FF41F029A6054
:10442C00054B4FF000629A6000BFBD4680BC7047E0
:10443C00001002400000FFF800ED00E080B485B0F1
:10444C0000AF0023FB600023BB6000237B602C4B80
:10445C005B6803F00C03FB60FB68042B07D0082B94
:10446C0009D0002B33D1274B274A1A6033E0254B58
:10447C00254A1A602FE0224B5B6803F47013BB6073
:10448C001F4B5B6803F480337B60BB689B0C02336F
:10449C00BB607B68002B06D1BB681C4A02FB03F394
:1044AC00184A136017E0164B5B6803F40033002BBB
:1044BC0006D0BB68154A02FB03F3124A13600AE0EC
:1044CC00BB68114A02FB03F30E4A136003E00D4B69
:1044DC000D4A1A6000BF0A4B5B6803F0F0031B091E
:1044EC000B4AD35CFB60074B1A68FB6822FA03F398
:1044FC00044A136000BF1437BD4680BC704700BF30
:10450C00001002400000002000127A0000093D005B
:10451C009C6F000880B485B000AF78607B6803F0B6
:10452C000703FB600C4BDB68BB60BA684FF6FF03FC
:10453C001340BB60FB681A02BB68134343F0BF63B4
:10454C0043F40033BB60044ABB68D36000BF14372C
:10455C00BD4680BC704700BF00ED00E080B400AFEA
:10456C00044BDB6803F4E0631B0A1846BD4680BCB1
:10457C00704700BF00ED00E080B483B000AF03468D
:10458C00FB71084997F907305B09FA7902F01F02B1
:10459C00012000FA02F241F8232000BF0C37BD467F
:1045AC0080BC704700E100E080B483B000AF0346EC
:1045BC00FB71094997F907305B09FA7902F01F0280
:1045CC00012000FA02F2203341F8232000BF0C37FF
:1045DC00BD4680BC704700BF00E100E080B483B0F2
:1045EC0000AF0346FB71094A97F907305B0940336A
:1045FC0052F82320FB7903F01F0322FA03F303F094
:10460C00010318460C37BD4680BC704700E100E042
:10461C0080B483B000AF0346FB71094997F90730AA
:10462C005B09FA7902F01F02012000FA02F2403312
:10463C0041F8232000BF0C37BD4680BC704700BF3B
:10464C0000E100E080B483B000AF0346FB71094980
:10465C0097F907305B09FA7902F01F02012000FA82
:10466C0002F2603341F8232000BF0C37BD4680BCFA
:10467C00704700BF00E100E080B483B000AF034698
:10468C00FB71094A97F907305B09803352F82320F4
:10469C00FB7903F01F0322FA03F303F0010318461E
:1046AC000C37BD4680BC704700E100E080B483B09D
:1046BC0000AF03463960FB7197F90730002B0BDA1A
:1046CC000D49FB7903F00F03043B3A68D2B2120197
:1046DC00D2B20B441A7609E0084997F907303A68C8
:1046EC00D2B21201D2B20B4483F8002300BF0C37B4
:1046FC00BD4680BC704700BF00ED00E000E100E06B
:10470C0080B483B000AF0346FB7197F90730002BE0
:10471C000ADA0C4AFB7903F00F03043B13441B7EAB
:10472C00DBB21B09DBB208E0074A97F907301344E8
:10473C0093F80033DBB21B09DBB218460C37BD46CD
:10474C0080BC704700ED00E000E100E080B489B06F
:10475C0000AFF860B9607A60FB6803F00703FB6197
:10476C00FB69C3F10703042B28BF0423BB61FB695E
:10477C000433062B02D9FB69033B00E000237B6169
:10478C000122BB6902FA03F35A1EBB681A407B690B
:10479C009A4001217B6901FA03F3591E7B680B4097
:1047AC00134318462437BD4680BC704780B489B08B
:1047BC0000AFF860B9607A603B60BB6803F0070338
:1047CC00FB61FB69C3F10703042B28BF0423BB6106
:1047DC00FB690433062B02D9FB69033B00E0002381
:1047EC007B61FA687B69DA400121BB6901FA03F34A
:1047FC00013B1A407B681A6001227B6902FA03F3C1
:10480C005A1EFB681A403B681A6000BF2437BD462D
:10481C0080BC704780B400AFBFF34F8F0549054B88
:10482C00DB6803F4E062044B1343CB60BFF34F8FA0
:10483C0000BFFDE700ED00E00400FA0580B582B092
:10484C0000AF78607B68013BB3F1807F01D301231B
:10485C000FE00A4A7B68013B53600F214FF0FF3099
:10486C00FFF724FF054B00229A60044B07221A60C5
:10487C00002318460837BD4680BD00BF10E000E09D
:10488C0080B582B000AF78607868FFF743FE00BF58
:10489C000837BD4680BD00BF80B586B000AF03466B
:1048AC00B9607A60FB7300237B61FFF757FE786178
:1048BC007A68B9687869FFF749FF024697F90F30B3
:1048CC0011461846FFF7F2FE00BF1837BD4680BDF3
:1048DC0080B582B000AF0346FB7197F907301846DC
:1048EC00FFF74AFE00BF0837BD4680BD80B582B0D9
:1048FC0000AF0346FB7197F907301846FFF754FEDB
:10490C0000BF0837BD4680BD80B500AFFFF782FF02
:10491C0000BF80BD80B582B000AF78607868FFF7CB
:10492C008DFF034618460837BD4680BD80B500AFE5
:10493C00FFF714FE0346184680BD00BF80B584B057
:10494C0000AFB9607A603B600346FB7397F90F3098
:10495C001846FFF7D5FE3B687A68B968FFF726FF63
:10496C0000BF1037BD4680BD80B582B000AF034696
:10497C00FB7197F907301846FFF74AFE00BF08375E
:10498C00BD4680BD80B582B000AF0346FB7197F980
:10499C0007301846FFF722FE034618460837BD4677
:1049AC0080BD00BF80B582B000AF0346FB7197F9A4
:1049BC0007301846FFF746FE00BF0837BD4680BDDE
:1049CC0080B582B000AF0346FB7197F907301846EB
:1049DC00FFF752FE034618460837BD4680BD00BFA0
:1049EC0080B483B000AF78607B68042B06D1094A91
:1049FC00084B1B6843F00403136005E0054A054BA4
:104A0C001B6823F00403136000BF0C37BD4680BC49
:104A1C00704700BF10E000E080B500AF00F002F876
:104A2C0000BF80BD80B400AF00BFBD4680BC7047E6
:104A3C0080B48BB000AF786039600023FB61002339
:104A4C00BB6100237B6100233B6200233B6100239D
:104A5C007B6227E101227B6A02FA03F3FB613B686C
:104A6C001A68FB691340BB61BA69FB699A4240F052
:104A7C0016813B685B68122B34D0122B0DD8022B9D
:104A8C002BD0022B04D8002B31D0012B1CD048E0AA
:104A9C00032B43D0112B1BD043E0874A934226D0E3
:104AAC00854A934206D8854A934220D0844A934241
:104ABC001DD036E0834A934219D0834A934216D0D4
:104ACC00824A934213D02CE03B68DB683B6228E0BF
:104ADC003B68DB6804333B6223E03B68DB680833EC
:104AEC003B621EE03B68DB680C333B6219E03B68C1
:104AFC009B68002B02D104233B6212E03B689B684D
:104B0C00012B05D108233B627B68FA691A6108E026
:104B1C0008233B627B68FA695A6102E000233B621E
:104B2C0000BFBB69FF2B01D87B6801E07B680433B5
:104B3C00FB60BB69FF2B02D87B6A9B0002E07B6A9F
:104B4C00083B9B003B61FB681A680F213B6901FA2B
:104B5C0003F3DB431A40396A3B6901FA03F31A4346
:104B6C00FB681A603B685B6803F08053002B00F015
:104B7C009680574A564B9B6943F001039361544B03
:104B8C009B6903F00103BB60BB68524A7B6A9B08BC
:104B9C00023352F823307B617B6A03F003039B00E2
:104BAC000F2202FA03F3DB437A6913407B617B68C3
:104BBC00494A934213D07B68484A93420DD07B6894
:104BCC00474A934207D07B68464A934201D103235C
:104BDC0006E0042304E0022302E0012300E00023AA
:104BEC007A6A02F00302920093407A6913437B6164
:104BFC0038497B6A9B0802337A6941F823203B6869
:104C0C005B6803F48033002B06D03749364B1A68A7
:104C1C00BB6913430B6006E03349334B1A68BB691D
:104C2C00DB4313400B603B685B6803F40033002BE1
:104C3C0006D02D492C4B5A68BB6913434B6006E0D8
:104C4C002949294B5A68BB69DB4313404B603B68CD
:104C5C005B6803F48013002B06D02349224B9A681F
:104C6C00BB6913438B6006E01F491F4B9A68BB69F5
:104C7C00DB4313408B603B685B6803F40013002B31
:104C8C0006D01949184BDA68BB691343CB6006E0B0
:104C9C001549154BDA68BB69DB431340CB607B6A63
:104CAC0001337B627B6A0F2B7FF6D4AE00BF2C37AF
:104CBC00BD4680BC704700BF0000211000001110E1
:104CCC000000121000003110000032100000221001
:104CDC00001002400000014000080140000C01409F
:104CEC0000100140001401400004014080B489B060
:104CFC0000AF786039600023FB610023BB610023A7
:104D0C007B6100233B619AE00122FB699A403B687E
:104D1C001340BB61BB69002B00F08E80BB69FF2B7D
:104D2C0001D87B6801E07B680433FB60BB69FF2B17
:104D3C0002D8FB699B0002E0FB69083B9B003B61CE
:104D4C00FB681A680F213B6901FA03F3DB431A4035
:104D5C0004213B6901FA03F31A43FB681A607B6870
:104D6C00DA68BB69DB431A407B68DA603A4AFB6954
:104D7C009B08023352F823307B61FB6903F0030379
:104D8C009B000F2202FA03F37A6913407B617B6864
:104D9C00324A934213D07B68314A93420DD07B68E0
:104DAC00304A934207D07B682F4A934201D10323A8
:104DBC0006E0042304E0022302E0012300E00023C8
:104DCC00FA6902F00302920003FA02F27B699A423A
:104DDC0032D1FB6903F003039B000F2202FA03F3A9
:104DEC007B611D48FB699B081B49FA6992080232DA
:104DFC0051F822107A69D2430A40023340F823203A
:104E0C001A491A4B1A68BB69DB4313400B601749EC
:104E1C00164B5A68BB69DB4313404B601349134B69
:104E2C009A68BB69DB4313408B6010490F4BDA68FF
:104E3C00BB69DB431340CB60FB690133FB613A6810
:104E4C00FB6922FA03F3002B7FF45EAF00BF24371B
:104E5C00BD4680BC704700BF000001400008014007
:104E6C00000C0140001001400014014000040140FE
:104E7C0080B485B000AF78600B467B807B689A6805
:104E8C007B881340002B02D00123FB7301E000232D
:104E9C00FB73FB7B18461437BD4680BC704700BFC4
:104EAC0080B483B000AF78600B467B8013467B7078
:104EBC007B78002B03D07A887B681A6103E07B88AF
:104ECC001A047B681A6100BF0C37BD4680BC704762
:104EDC0080B483B000AF78600B467B807B68DA6867
:104EEC007B885A407B68DA6000BF0C37BD4680BCBB
:104EFC00704700BF80B485B000AF78600B467B80F4
:104F0C004FF48033FB607A88FB681343FB60FA68CC
:104F1C007B689A617A887B689A61FA687B689A6187
:104F2C007B689B69FB607B689B6903F48033002B77
:104F3C0001D0002300E0012318461437BD4680BC85
:104F4C00704700BF80B582B000AF0346FB80084BB2
:104F5C005A69FB881340002B06D0054AFB88536125
:104F6C00FB88184600F006F800BF0837BD4680BD28
:104F7C000004014080B483B000AF0346FB8000BF47
:104F8C000C37BD4680BC704780B500AF084A084B53
:104F9C001B6843F0100313600320FFF771FC002023
:104FAC0000F02CF800F040FB0023184680BD00BF39
:104FBC000020024080B500AF094B4FF0FF32DA60A1
:104FCC00074B00221A61064B4FF0FF32DA60044B9C
:104FDC000022DA6000F00CF80023184680BD00BFF8
:104FEC000010024080B400AF00BFBD4680BC7047CB
:104FFC0080B400AF00BFBD4680BC704780B582B0A6
:10500C0000AF786001F0A6FD0246094BA3FB02231A
:10501C009B091846FFF77EFC002279684FF0FF30A1
:10502C00FFF73AFC002318460837BD4680BD00BF89
:10503C00D34D621080B400AF044B1B680133034A9C
:10504C00136000BFBD4680BC704700BF4C040020FD
:10505C0080B400AF024B1B681846BD4680BC70473D
:10506C004C04002080B584B000AF78600023FB6056
:10507C00FFF7EEFFF86000BFFFF7EAFF0246FB68A0
:10508C00D21A7B689A42F7D300BF1037BD4680BD59
:10509C0080B400AF044A044B1B6823F00203136076
:1050AC0000BFBD4680BC704710E000E080B400AF8C
:1050BC00044A044B1B6843F00203136000BFBD4657
:1050CC0080BC704710E000E080B400AF024B184683
:1050DC00BD4680BC704700BF0004000180B483B0A3
:1050EC0000AF094B1A68094B7B607B6893FAA3F3FA
:1050FC003B603B68B3FA83F322FA03F318460C3790
:10510C00BD4680BC704700BF002004E00000FFFFDC
:10511C0080B400AF034B1B68C3F30B031846BD46AA
:10512C0080BC7047002004E080B400AF044A044BFC
:10513C005B6843F00103536000BFBD4680BC704701
:10514C00002004E080B400AF044A044B5B6823F0F9
:10515C000103536000BFBD4680BC7047002004E0D3
:10516C0080B400AF044A044B5B6843F00203536005
:10517C0000BFBD4680BC7047002004E080B400AF87
:10518C00044A044B5B6823F00203536000BFBD4626
:10519C0080BC7047002004E080B400AF044A044B8C
:1051AC005B6843F00403536000BFBD4680BC70478E
:1051BC00002004E080B400AF044A044B5B6823F089
:1051CC000403536000BFBD4680BC7047002004E060
:1051DC0080B400AF00BFBD4680BC704780B400AF48
:1051EC00FEE700BF80B400AFFEE700BF80B400AFA5
:1051FC00FEE700BF80B400AFFEE700BF80B400AF95
:10520C0000BFBD4680BC704780B400AF00BFBD4638
:10521C0080BC704780B400AF00BFBD4680BC7047F7
:10522C0080B500AFFFF706FFFFF7F6FB00BF80BDB0
:10523C0080B582B000AF134B3B604E23BB80FFF7B1
:10524C00A3FE00F025F800F093F800F063F83B465D
:10525C00184600F0EFF83B4600220421184600F0F7
:10526C00A7F93B460849184600F084F93B46012251
:10527C000321184600F09CF93B460449184600F0FF
:10528C0079F9FEE750040020B46F0008BC6F0008E9
:10529C0080B590B000AF0223BB610123BB62102329
:1052AC00FB6200237B6307F11803184600F090FAA9
:1052BC000346002B01D000F07DF80F237B60002308
:1052CC00BB600023FB6000233B6100237B613B1D23
:1052DC000021184601F09CF90346002B01D000F088
:1052EC0069F801F037FC0246094BA3FB02239B092A
:1052FC001846FFF70FFB0420FFF772FB002200217A
:10530C004FF0FF30FFF7C8FA00BF4037BD4680BDF5
:10531C00D34D621080B500AF124B134A1A60114B7B
:10532C00124A5A600F4B00229A600E4B0022DA6030
:10533C000C4B4FF480421A610A4B00225A61094B04
:10534C0000229A61074B0022DA61064B00221A6296
:10535C000448FBF7EFFC0346002B01D000F02AF8C1
:10536C0000BF80BD5004002000540040A086010006
:10537C0080B483B000AF0E4A0D4B9B6943F004031D
:10538C0093610B4B9B6903F004037B607B68084AB9
:10539C00074B9B6943F008039361054B9B6903F032
:1053AC0008033B603B6800BF0C37BD4680BC7047B0
:1053BC000010024080B400AFFEE700BF80B584B09F
:1053CC0002AF786039603B681B7843F00403DAB2B3
:1053DC003B681A7000BF7B6818687B6899884FF42B
:1053EC007A73009301233A68FBF76AFD0346002B9E
:1053FC00F1D10520FFF736FE3B681B7823F0040340
:10540C00DAB23B681A7000BF7B6818687B689988B1
:10541C004FF47A73009301233A68FBF751FD03466E
:10542C00002BF1D10520FFF71DFE00BF0837BD464C
:10543C0080BD00BF80B584B000AF78603023FB73B3
:10544C001420FFF70FFE07F10F0319467868FFF7DA
:10545C00B5FF07F10F0319467868FFF7AFFF07F1A7
:10546C000F0319467868FFF7A9FF2023FB7307F198
:10547C000F0319467868FFF7A1FF2023FB7307F190
:10548C000F0319467868FFF799FFC023FB7307F1E8
:10549C000F0319467868FFF791FF0023FB7307F1A0
:1054AC000F0319467868FFF789FF8023FB7307F118
:1054BC000F0319467868FFF781FF0023FB7307F190
:1054CC000F0319467868FFF779FF1023FB7307F178
:1054DC000F0319467868FFF771FF0023FB7307F180
:1054EC000F0319467868FFF769FF3023FB7307F148
:1054FC000F0319467868FFF761FF0023FB7307F170
:10550C000F0319467868FFF759FFC823FB7307F19F
:10551C000F0319467868FFF751FF00BF1037BD46DF
:10552C0080BD00BF80B584B000AF78600B46FB70C7
:10553C0097F9033023F00F035BB243F009035BB21E
:10554C00DBB2FB7307F10F0319467868FFF736FFE0
:10555C00FB781B015BB243F009035BB2DBB2FB735C
:10556C0007F10F0319467868FFF728FF00BF1037C3
:10557C00BD4680BD80B584B000AF78603960002333
:10558C00FB600AE0FB683A6813441B78194678689C
:10559C00FFF7C8FFFB680133FB60386801F0BEFC05
:1055AC000246FB689A42EDD800BF1037BD4680BD5D
:1055BC0080B584B000AF78600B46FB701346BB70AF
:1055CC00BB78012B01D90123BB70FB78272B01D9A8
:1055DC002723FB70BB78002B01D1FB78FB73BB78C6
:1055EC00012B02D1FB784033FB7397F90F3003F09A
:1055FC0070035BB263F07F035BB2DBB2BB7307F18A
:10560C000E0319467868FFF7D9FEFB7B1B01DBB252
:10561C00BB7307F10E0319467868FFF7CFFE00BF86
:10562C001037BD4680BD00BF80B582B000AF224AA6
:10563C00214B9B6943F0010393611F4B9B6903F062
:10564C0001037B607B680320FFF71AF9002200211D
:10565C006FF00B00FFF720F9002200216FF00A0019
:10566C00FFF71AF9002200216FF00900FFF714F977
:10567C00002200216FF00400FFF70EF90022002138
:10568C006FF00300FFF708F9002200216FF0010012
:10569C00FFF702F9002200214FF0FF30FFF7FCF872
:1056AC00064A064B5B6823F0E06343F000735360DB
:1056BC0000BF0837BD4680BD00100240000001400D
:1056CC0080B588B000AF78607B681B680F4A934246
:1056DC0017D1C0233B6112237B610323FB6107F1CC
:1056EC00100319460A48FFF7A3F90A4A094BDB696C
:1056FC0043F40013D361074BDB6903F40013FB6025
:10570C00FB6800BF2037BD4680BD00BF0054004081
:10571C00000C01400010024080B582B000AF7860F0
:10572C007B681B68084A934209D1084A074BDB691E
:10573C0023F40013D361C0210548FFF7D7FA00BF4B
:10574C000837BD4680BD00BF005400400010024029
:10575C00000C014080B483B000AF1A4A194B5B684F
:10576C0023F003035360174A164B1B6823F0847312
:10577C0023F480331360134A124B1B6823F48023E9
:10578C001360104B00225A600E490E4B1B6823F01D
:10579C00F802F8237B607B6893FAA3F33B603B68C9
:1057AC00B3FA83F3102000FA03F313430B60054B99
:1057BC0000229A60044B054A1A6000BF0C37BD46A4
:1057CC0080BC7047001002400000002000127A00DC
:1057DC0090B5E5B000AF3B1D18600023C7F88C31C5
:1057EC003B1D1B681B6803F00103002B00F0758147
:1057FC00B84B5B6803F00C03042B0BD0B54B5B6808
:10580C0003F00C03082B5FD1B24B5B6803F48033BD
:10581C00002B59D04FF40033C7F8CC30D7F8CC302C
:10582C0093FAA3F3C7F8C830D7F8C830B3FA83F3A8
:10583C005BB243F020035BB2DBB25B09DBB2012B42
:10584C0002D1A44B1B681BE04FF40033C7F8703136
:10585C00D7F8703193FAA3F3C7F8C430D7F8C43033
:10586C00B3FA83F35BB243F020035BB2DBB25B09A8
:10587C00DBB2022B02D1974B1B6A01E0954B5B6AA2
:10588C004FF40032C7F86C21D7F86C2192FAA2F2CF
:10589C00C7F8C020D7F8C020B2FA82F252B242F058
:1058AC00200252B2D2B202F01F02D34003F0010325
:1058BC00002B00F011813B1D1B685B68002B40F036
:1058CC000B81012300F09DBE3B1D1B685B68B3F58B
:1058DC00803F06D17F4A7F4B1B6843F480331360B3
:1058EC0030E03B1D1B685B68002B0CD1794A794B6F
:1058FC001B6823F480331360764A764B1B6823F4C1
:10590C00802313601EE03B1D1B685B68B3F5A02F62
:10591C000CD1704A6F4B1B6843F4802313606D4AA3
:10592C006C4B1B6843F4803313600BE0694A694B82
:10593C001B6823F480331360664A664B1B6823F4A0
:10594C00802313603B1D1B685B68002B60D0FFF746
:10595C007FFBC7F88C010AE0FFF77AFB0246D7F809
:10596C008C31D31A642B02D9032300F04ABE4FF4B6
:10597C000033C7F86831D7F8683193FAA3F3C7F846
:10598C00BC30D7F8BC30B3FA83F35BB243F02003DE
:10599C005BB2DBB25B09DBB2012B02D14D4B1B6856
:1059AC001BE04FF40033C7F88831D7F8883193FAED
:1059BC00A3F3C7F8B830D7F8B830B3FA83F35BB2B7
:1059CC0043F020035BB2DBB25B09DBB2022B02D1EA
:1059DC00404B1B6A01E03F4B5B6A4FF40032C7F847
:1059EC008421D7F8842192FAA2F2C7F8B420D7F810
:1059FC00B420B2FA82F252B242F0200252B2D2B2C7
:105A0C0002F01F02D34003F00103002BA4D064E08A
:105A1C00FFF71EFBC7F88C010AE0FFF719FB0246E3
:105A2C00D7F88C31D31A642B02D9032300F0E9BDCB
:105A3C004FF40033C7F88031D7F8803193FAA3F3D1
:105A4C00C7F8B030D7F8B030B3FA83F35BB243F099
:105A5C0020035BB2DBB25B09DBB2012B02D11D4B25
:105A6C001B681BE04FF40033C7F87C31D7F87C314E
:105A7C0093FAA3F3C7F8AC30D7F8AC30B3FA83F38E
:105A8C005BB243F020035BB2DBB25B09DBB2022BEF
:105A9C0002D1104B1B6A01E00E4B5B6A4FF40032D3
:105AAC00C7F87821D7F8782192FAA2F2C7F8A82083
:105ABC00D7F8A820B2FA82F252B242F0200252B2C7
:105ACC00D2B202F01F02D34003F00103002BA4D189
